{
  "contractName": "NftMarket",
  "abi": [
    {
      "inputs": [],
      "stateMutability": "nonpayable",
      "type": "constructor"
    },
    {
      "anonymous": false,
      "inputs": [
        {
          "indexed": true,
          "internalType": "address",
          "name": "owner",
          "type": "address"
        },
        {
          "indexed": true,
          "internalType": "address",
          "name": "approved",
          "type": "address"
        },
        {
          "indexed": true,
          "internalType": "uint256",
          "name": "tokenId",
          "type": "uint256"
        }
      ],
      "name": "Approval",
      "type": "event"
    },
    {
      "anonymous": false,
      "inputs": [
        {
          "indexed": true,
          "internalType": "address",
          "name": "owner",
          "type": "address"
        },
        {
          "indexed": true,
          "internalType": "address",
          "name": "operator",
          "type": "address"
        },
        {
          "indexed": false,
          "internalType": "bool",
          "name": "approved",
          "type": "bool"
        }
      ],
      "name": "ApprovalForAll",
      "type": "event"
    },
    {
      "anonymous": false,
      "inputs": [
        {
          "indexed": false,
          "internalType": "uint256",
          "name": "tokenId",
          "type": "uint256"
        },
        {
          "indexed": false,
          "internalType": "uint256",
          "name": "price",
          "type": "uint256"
        },
        {
          "indexed": false,
          "internalType": "address",
          "name": "creator",
          "type": "address"
        },
        {
          "indexed": false,
          "internalType": "bool",
          "name": "isListed",
          "type": "bool"
        }
      ],
      "name": "NftItemCreated",
      "type": "event"
    },
    {
      "anonymous": false,
      "inputs": [
        {
          "indexed": true,
          "internalType": "address",
          "name": "previousOwner",
          "type": "address"
        },
        {
          "indexed": true,
          "internalType": "address",
          "name": "newOwner",
          "type": "address"
        }
      ],
      "name": "OwnershipTransferred",
      "type": "event"
    },
    {
      "anonymous": false,
      "inputs": [
        {
          "indexed": true,
          "internalType": "address",
          "name": "from",
          "type": "address"
        },
        {
          "indexed": true,
          "internalType": "address",
          "name": "to",
          "type": "address"
        },
        {
          "indexed": true,
          "internalType": "uint256",
          "name": "tokenId",
          "type": "uint256"
        }
      ],
      "name": "Transfer",
      "type": "event"
    },
    {
      "inputs": [
        {
          "internalType": "address",
          "name": "to",
          "type": "address"
        },
        {
          "internalType": "uint256",
          "name": "tokenId",
          "type": "uint256"
        }
      ],
      "name": "approve",
      "outputs": [],
      "stateMutability": "nonpayable",
      "type": "function"
    },
    {
      "inputs": [
        {
          "internalType": "address",
          "name": "owner",
          "type": "address"
        }
      ],
      "name": "balanceOf",
      "outputs": [
        {
          "internalType": "uint256",
          "name": "",
          "type": "uint256"
        }
      ],
      "stateMutability": "view",
      "type": "function",
      "constant": true
    },
    {
      "inputs": [
        {
          "internalType": "uint256",
          "name": "tokenId",
          "type": "uint256"
        }
      ],
      "name": "getApproved",
      "outputs": [
        {
          "internalType": "address",
          "name": "",
          "type": "address"
        }
      ],
      "stateMutability": "view",
      "type": "function",
      "constant": true
    },
    {
      "inputs": [
        {
          "internalType": "address",
          "name": "owner",
          "type": "address"
        },
        {
          "internalType": "address",
          "name": "operator",
          "type": "address"
        }
      ],
      "name": "isApprovedForAll",
      "outputs": [
        {
          "internalType": "bool",
          "name": "",
          "type": "bool"
        }
      ],
      "stateMutability": "view",
      "type": "function",
      "constant": true
    },
    {
      "inputs": [],
      "name": "listingPrice",
      "outputs": [
        {
          "internalType": "uint256",
          "name": "",
          "type": "uint256"
        }
      ],
      "stateMutability": "view",
      "type": "function",
      "constant": true
    },
    {
      "inputs": [],
      "name": "name",
      "outputs": [
        {
          "internalType": "string",
          "name": "",
          "type": "string"
        }
      ],
      "stateMutability": "view",
      "type": "function",
      "constant": true
    },
    {
      "inputs": [],
      "name": "owner",
      "outputs": [
        {
          "internalType": "address",
          "name": "",
          "type": "address"
        }
      ],
      "stateMutability": "view",
      "type": "function",
      "constant": true
    },
    {
      "inputs": [
        {
          "internalType": "uint256",
          "name": "tokenId",
          "type": "uint256"
        }
      ],
      "name": "ownerOf",
      "outputs": [
        {
          "internalType": "address",
          "name": "",
          "type": "address"
        }
      ],
      "stateMutability": "view",
      "type": "function",
      "constant": true
    },
    {
      "inputs": [],
      "name": "renounceOwnership",
      "outputs": [],
      "stateMutability": "nonpayable",
      "type": "function"
    },
    {
      "inputs": [
        {
          "internalType": "address",
          "name": "from",
          "type": "address"
        },
        {
          "internalType": "address",
          "name": "to",
          "type": "address"
        },
        {
          "internalType": "uint256",
          "name": "tokenId",
          "type": "uint256"
        }
      ],
      "name": "safeTransferFrom",
      "outputs": [],
      "stateMutability": "nonpayable",
      "type": "function"
    },
    {
      "inputs": [
        {
          "internalType": "address",
          "name": "from",
          "type": "address"
        },
        {
          "internalType": "address",
          "name": "to",
          "type": "address"
        },
        {
          "internalType": "uint256",
          "name": "tokenId",
          "type": "uint256"
        },
        {
          "internalType": "bytes",
          "name": "_data",
          "type": "bytes"
        }
      ],
      "name": "safeTransferFrom",
      "outputs": [],
      "stateMutability": "nonpayable",
      "type": "function"
    },
    {
      "inputs": [
        {
          "internalType": "address",
          "name": "operator",
          "type": "address"
        },
        {
          "internalType": "bool",
          "name": "approved",
          "type": "bool"
        }
      ],
      "name": "setApprovalForAll",
      "outputs": [],
      "stateMutability": "nonpayable",
      "type": "function"
    },
    {
      "inputs": [
        {
          "internalType": "bytes4",
          "name": "interfaceId",
          "type": "bytes4"
        }
      ],
      "name": "supportsInterface",
      "outputs": [
        {
          "internalType": "bool",
          "name": "",
          "type": "bool"
        }
      ],
      "stateMutability": "view",
      "type": "function",
      "constant": true
    },
    {
      "inputs": [],
      "name": "symbol",
      "outputs": [
        {
          "internalType": "string",
          "name": "",
          "type": "string"
        }
      ],
      "stateMutability": "view",
      "type": "function",
      "constant": true
    },
    {
      "inputs": [
        {
          "internalType": "uint256",
          "name": "tokenId",
          "type": "uint256"
        }
      ],
      "name": "tokenURI",
      "outputs": [
        {
          "internalType": "string",
          "name": "",
          "type": "string"
        }
      ],
      "stateMutability": "view",
      "type": "function",
      "constant": true
    },
    {
      "inputs": [
        {
          "internalType": "address",
          "name": "from",
          "type": "address"
        },
        {
          "internalType": "address",
          "name": "to",
          "type": "address"
        },
        {
          "internalType": "uint256",
          "name": "tokenId",
          "type": "uint256"
        }
      ],
      "name": "transferFrom",
      "outputs": [],
      "stateMutability": "nonpayable",
      "type": "function"
    },
    {
      "inputs": [
        {
          "internalType": "address",
          "name": "newOwner",
          "type": "address"
        }
      ],
      "name": "transferOwnership",
      "outputs": [],
      "stateMutability": "nonpayable",
      "type": "function"
    },
    {
      "inputs": [
        {
          "internalType": "uint256",
          "name": "newPrice",
          "type": "uint256"
        }
      ],
      "name": "setListingPrice",
      "outputs": [],
      "stateMutability": "nonpayable",
      "type": "function"
    },
    {
      "inputs": [
        {
          "internalType": "uint256",
          "name": "tokenId",
          "type": "uint256"
        }
      ],
      "name": "getNftItem",
      "outputs": [
        {
          "components": [
            {
              "internalType": "uint256",
              "name": "tokenId",
              "type": "uint256"
            },
            {
              "internalType": "uint256",
              "name": "price",
              "type": "uint256"
            },
            {
              "internalType": "address",
              "name": "creator",
              "type": "address"
            },
            {
              "internalType": "bool",
              "name": "isListed",
              "type": "bool"
            }
          ],
          "internalType": "struct NftMarket.NftItem",
          "name": "",
          "type": "tuple"
        }
      ],
      "stateMutability": "view",
      "type": "function",
      "constant": true
    },
    {
      "inputs": [],
      "name": "listedItemsCount",
      "outputs": [
        {
          "internalType": "uint256",
          "name": "",
          "type": "uint256"
        }
      ],
      "stateMutability": "view",
      "type": "function",
      "constant": true
    },
    {
      "inputs": [
        {
          "internalType": "string",
          "name": "tokenURI",
          "type": "string"
        }
      ],
      "name": "tokenURIExists",
      "outputs": [
        {
          "internalType": "bool",
          "name": "",
          "type": "bool"
        }
      ],
      "stateMutability": "view",
      "type": "function",
      "constant": true
    },
    {
      "inputs": [],
      "name": "totalSupply",
      "outputs": [
        {
          "internalType": "uint256",
          "name": "",
          "type": "uint256"
        }
      ],
      "stateMutability": "view",
      "type": "function",
      "constant": true
    },
    {
      "inputs": [
        {
          "internalType": "uint256",
          "name": "index",
          "type": "uint256"
        }
      ],
      "name": "tokenByIndex",
      "outputs": [
        {
          "internalType": "uint256",
          "name": "",
          "type": "uint256"
        }
      ],
      "stateMutability": "view",
      "type": "function",
      "constant": true
    },
    {
      "inputs": [
        {
          "internalType": "address",
          "name": "owner",
          "type": "address"
        },
        {
          "internalType": "uint256",
          "name": "index",
          "type": "uint256"
        }
      ],
      "name": "tokenOfOwnerByIndex",
      "outputs": [
        {
          "internalType": "uint256",
          "name": "",
          "type": "uint256"
        }
      ],
      "stateMutability": "view",
      "type": "function",
      "constant": true
    },
    {
      "inputs": [],
      "name": "getAllNftsOnSale",
      "outputs": [
        {
          "components": [
            {
              "internalType": "uint256",
              "name": "tokenId",
              "type": "uint256"
            },
            {
              "internalType": "uint256",
              "name": "price",
              "type": "uint256"
            },
            {
              "internalType": "address",
              "name": "creator",
              "type": "address"
            },
            {
              "internalType": "bool",
              "name": "isListed",
              "type": "bool"
            }
          ],
          "internalType": "struct NftMarket.NftItem[]",
          "name": "",
          "type": "tuple[]"
        }
      ],
      "stateMutability": "view",
      "type": "function",
      "constant": true
    },
    {
      "inputs": [],
      "name": "getOwnedNfts",
      "outputs": [
        {
          "components": [
            {
              "internalType": "uint256",
              "name": "tokenId",
              "type": "uint256"
            },
            {
              "internalType": "uint256",
              "name": "price",
              "type": "uint256"
            },
            {
              "internalType": "address",
              "name": "creator",
              "type": "address"
            },
            {
              "internalType": "bool",
              "name": "isListed",
              "type": "bool"
            }
          ],
          "internalType": "struct NftMarket.NftItem[]",
          "name": "",
          "type": "tuple[]"
        }
      ],
      "stateMutability": "view",
      "type": "function",
      "constant": true
    },
    {
      "inputs": [
        {
          "internalType": "uint256",
          "name": "tokenId",
          "type": "uint256"
        }
      ],
      "name": "burnToken",
      "outputs": [],
      "stateMutability": "nonpayable",
      "type": "function"
    },
    {
      "inputs": [
        {
          "internalType": "string",
          "name": "tokenURI",
          "type": "string"
        },
        {
          "internalType": "uint256",
          "name": "price",
          "type": "uint256"
        }
      ],
      "name": "mintToken",
      "outputs": [
        {
          "internalType": "uint256",
          "name": "",
          "type": "uint256"
        }
      ],
      "stateMutability": "payable",
      "type": "function",
      "payable": true
    },
    {
      "inputs": [
        {
          "internalType": "uint256",
          "name": "tokenId",
          "type": "uint256"
        }
      ],
      "name": "buyNft",
      "outputs": [],
      "stateMutability": "payable",
      "type": "function",
      "payable": true
    },
    {
      "inputs": [
        {
          "internalType": "uint256",
          "name": "tokenId",
          "type": "uint256"
        },
        {
          "internalType": "uint256",
          "name": "newPrice",
          "type": "uint256"
        }
      ],
      "name": "placeNftOnSale",
      "outputs": [],
      "stateMutability": "payable",
      "type": "function",
      "payable": true
    }
  ],
  "bytecode": "0x60806040526658d15e176280006008553480156200001c57600080fd5b506040518060400160405280600c81526020017f4372656174757265734e465400000000000000000000000000000000000000008152506040518060400160405280600481526020017f434e46540000000000000000000000000000000000000000000000000000000081525081600090816200009a91906200041d565b508060019081620000ac91906200041d565b505050620000cf620000c3620000d560201b60201c565b620000dd60201b60201c565b62000504565b600033905090565b6000600760009054906101000a900473ffffffffffffffffffffffffffffffffffffffff16905081600760006101000a81548173ffffffffffffffffffffffffffffffffffffffff021916908373ffffffffffffffffffffffffffffffffffffffff1602179055508173ffffffffffffffffffffffffffffffffffffffff168173ffffffffffffffffffffffffffffffffffffffff167f8be0079c531659141344cd1fd0a4f28419497f9722a3daafe3b4186f6b6457e060405160405180910390a35050565b600081519050919050565b7f4e487b7100000000000000000000000000000000000000000000000000000000600052604160045260246000fd5b7f4e487b7100000000000000000000000000000000000000000000000000000000600052602260045260246000fd5b600060028204905060018216806200022557607f821691505b6020821081036200023b576200023a620001dd565b5b50919050565b60008190508160005260206000209050919050565b60006020601f8301049050919050565b600082821b905092915050565b600060088302620002a57fffffffffffffffffffffffffffffffffffffffffffffffffffffffffffffffff8262000266565b620002b1868362000266565b95508019841693508086168417925050509392505050565b6000819050919050565b6000819050919050565b6000620002fe620002f8620002f284620002c9565b620002d3565b620002c9565b9050919050565b6000819050919050565b6200031a83620002dd565b62000332620003298262000305565b84845462000273565b825550505050565b600090565b620003496200033a565b620003568184846200030f565b505050565b5b818110156200037e57620003726000826200033f565b6001810190506200035c565b5050565b601f821115620003cd57620003978162000241565b620003a28462000256565b81016020851015620003b2578190505b620003ca620003c18562000256565b8301826200035b565b50505b505050565b600082821c905092915050565b6000620003f260001984600802620003d2565b1980831691505092915050565b60006200040d8383620003df565b9150826002028217905092915050565b6200042882620001a3565b67ffffffffffffffff811115620004445762000443620001ae565b5b6200045082546200020c565b6200045d82828562000382565b600060209050601f83116001811462000495576000841562000480578287015190505b6200048c8582620003ff565b865550620004fc565b601f198416620004a58662000241565b60005b82811015620004cf57848901518255600182019150602085019450602081019050620004a8565b86831015620004ef5784890151620004eb601f891682620003df565b8355505b6001600288020188555050505b505050505050565b614ea080620005146000396000f3fe6080604052600436106101cd5760003560e01c806370a08231116100f7578063a22cb46511610095578063c87b56dd11610064578063c87b56dd14610685578063ccb4918d146106c2578063e985e9c5146106ed578063f2fde38b1461072a576101cd565b8063a22cb465146105d8578063b88d4fde14610601578063c046372c1461062a578063c78f19f91461065a576101cd565b80637b47ec1a116100d15780637b47ec1a146105305780637c726b69146105595780638da5cb5b1461058257806395d89b41146105ad576101cd565b806370a08231146104b157806370cbcb43146104ee578063715018a614610519576101cd565b8063243adbdd1161016f57806343d32ae71161013e57806343d32ae7146103bd5780634f6ccce7146103fa5780636352211e146104375780636f1a0af514610474576101cd565b8063243adbdd146103105780632f745c591461032c57806336b536be1461036957806342842e0e14610394576101cd565b8063095ea7b3116101ab578063095ea7b31461027757806318160ddd146102a057806321f422e5146102cb57806323b872dd146102e7576101cd565b806301ffc9a7146101d257806306fdde031461020f578063081812fc1461023a575b600080fd5b3480156101de57600080fd5b506101f960048036038101906101f4919061312d565b610753565b6040516102069190613175565b60405180910390f35b34801561021b57600080fd5b50610224610835565b6040516102319190613229565b60405180910390f35b34801561024657600080fd5b50610261600480360381019061025c9190613281565b6108c7565b60405161026e91906132ef565b60405180910390f35b34801561028357600080fd5b5061029e60048036038101906102999190613336565b61094c565b005b3480156102ac57600080fd5b506102b5610a63565b6040516102c29190613385565b60405180910390f35b6102e560048036038101906102e091906133a0565b610a70565b005b3480156102f357600080fd5b5061030e600480360381019061030991906133e0565b610bec565b005b61032a60048036038101906103259190613281565b610c4c565b005b34801561033857600080fd5b50610353600480360381019061034e9190613336565b610db4565b6040516103609190613385565b60405180910390f35b34801561037557600080fd5b5061037e610e59565b60405161038b9190613564565b60405180910390f35b3480156103a057600080fd5b506103bb60048036038101906103b691906133e0565b610ff3565b005b3480156103c957600080fd5b506103e460048036038101906103df91906136bb565b611013565b6040516103f19190613175565b60405180910390f35b34801561040657600080fd5b50610421600480360381019061041c9190613281565b61104f565b60405161042e9190613385565b60405180910390f35b34801561044357600080fd5b5061045e60048036038101906104599190613281565b6110c0565b60405161046b91906132ef565b60405180910390f35b34801561048057600080fd5b5061049b60048036038101906104969190613281565b611171565b6040516104a89190613759565b60405180910390f35b3480156104bd57600080fd5b506104d860048036038101906104d39190613774565b611223565b6040516104e59190613385565b60405180910390f35b3480156104fa57600080fd5b506105036112da565b6040516105109190613564565b60405180910390f35b34801561052557600080fd5b5061052e61143e565b005b34801561053c57600080fd5b5061055760048036038101906105529190613281565b6114c6565b005b34801561056557600080fd5b50610580600480360381019061057b9190613281565b6114d2565b005b34801561058e57600080fd5b5061059761159b565b6040516105a491906132ef565b60405180910390f35b3480156105b957600080fd5b506105c26115c5565b6040516105cf9190613229565b60405180910390f35b3480156105e457600080fd5b506105ff60048036038101906105fa91906137cd565b611657565b005b34801561060d57600080fd5b50610628600480360381019061062391906138ae565b61166d565b005b610644600480360381019061063f9190613931565b6116cf565b6040516106519190613385565b60405180910390f35b34801561066657600080fd5b5061066f6117df565b60405161067c9190613385565b60405180910390f35b34801561069157600080fd5b506106ac60048036038101906106a79190613281565b6117e5565b6040516106b99190613229565b60405180910390f35b3480156106ce57600080fd5b506106d7611936565b6040516106e49190613385565b60405180910390f35b3480156106f957600080fd5b50610714600480360381019061070f919061398d565b611947565b6040516107219190613175565b60405180910390f35b34801561073657600080fd5b50610751600480360381019061074c9190613774565b6119db565b005b60007f80ac58cd000000000000000000000000000000000000000000000000000000007bffffffffffffffffffffffffffffffffffffffffffffffffffffffff1916827bffffffffffffffffffffffffffffffffffffffffffffffffffffffff1916148061081e57507f5b5e139f000000000000000000000000000000000000000000000000000000007bffffffffffffffffffffffffffffffffffffffffffffffffffffffff1916827bffffffffffffffffffffffffffffffffffffffffffffffffffffffff1916145b8061082e575061082d82611ad2565b5b9050919050565b606060008054610844906139fc565b80601f0160208091040260200160405190810160405280929190818152602001828054610870906139fc565b80156108bd5780601f10610892576101008083540402835291602001916108bd565b820191906000526020600020905b8154815290600101906020018083116108a057829003601f168201915b5050505050905090565b60006108d282611b3c565b610911576040517f08c379a000000000000000000000000000000000000000000000000000000000815260040161090890613a9f565b60405180910390fd5b6004600083815260200190815260200160002060009054906101000a900473ffffffffffffffffffffffffffffffffffffffff169050919050565b6000610957826110c0565b90508073ffffffffffffffffffffffffffffffffffffffff168373ffffffffffffffffffffffffffffffffffffffff16036109c7576040517f08c379a00000000000000000000000000000000000000000000000000000000081526004016109be90613b31565b60405180910390fd5b8073ffffffffffffffffffffffffffffffffffffffff166109e6611ba8565b73ffffffffffffffffffffffffffffffffffffffff161480610a155750610a1481610a0f611ba8565b611947565b5b610a54576040517f08c379a0000000000000000000000000000000000000000000000000000000008152600401610a4b90613bc3565b60405180910390fd5b610a5e8383611bb0565b505050565b6000600f80549050905090565b3373ffffffffffffffffffffffffffffffffffffffff16610a90836110c0565b73ffffffffffffffffffffffffffffffffffffffff1614610ae6576040517f08c379a0000000000000000000000000000000000000000000000000000000008152600401610add90613c2f565b60405180910390fd5b60001515600c600084815260200190815260200160002060020160149054906101000a900460ff16151514610b50576040517f08c379a0000000000000000000000000000000000000000000000000000000008152600401610b4790613c9b565b60405180910390fd5b6008543414610b94576040517f08c379a0000000000000000000000000000000000000000000000000000000008152600401610b8b90613d2d565b60405180910390fd5b6001600c600084815260200190815260200160002060020160146101000a81548160ff02191690831515021790555080600c600084815260200190815260200160002060010181905550610be86009611c69565b5050565b610bfd610bf7611ba8565b82611c7f565b610c3c576040517f08c379a0000000000000000000000000000000000000000000000000000000008152600401610c3390613dbf565b60405180910390fd5b610c47838383611d5d565b505050565b6000600c60008381526020019081526020016000206001015490506000610c72836110c0565b90508073ffffffffffffffffffffffffffffffffffffffff163373ffffffffffffffffffffffffffffffffffffffff1603610ce2576040517f08c379a0000000000000000000000000000000000000000000000000000000008152600401610cd990613e2b565b60405180910390fd5b813414610d24576040517f08c379a0000000000000000000000000000000000000000000000000000000008152600401610d1b90613e97565b60405180910390fd5b6000600c600085815260200190815260200160002060020160146101000a81548160ff021916908315150217905550610d5d6009611fc3565b610d68813385611d5d565b8073ffffffffffffffffffffffffffffffffffffffff166108fc349081150290604051600060405180830381858888f19350505050158015610dae573d6000803e3d6000fd5b50505050565b6000610dbf83611223565b8210610e00576040517f08c379a0000000000000000000000000000000000000000000000000000000008152600401610df790613f03565b60405180910390fd5b600d60008473ffffffffffffffffffffffffffffffffffffffff1673ffffffffffffffffffffffffffffffffffffffff168152602001908152602001600020600083815260200190815260200160002054905092915050565b60606000610e65610a63565b9050600080610e74600961201f565b67ffffffffffffffff811115610e8d57610e8c613590565b5b604051908082528060200260200182016040528015610ec657816020015b610eb3613024565b815260200190600190039081610eab5790505b50905060005b83811015610fe9576000610edf8261104f565b90506000600c60008381526020019081526020016000209050600115158160020160149054906101000a900460ff16151503610fd4578060405180608001604052908160008201548152602001600182015481526020016002820160009054906101000a900473ffffffffffffffffffffffffffffffffffffffff1673ffffffffffffffffffffffffffffffffffffffff1673ffffffffffffffffffffffffffffffffffffffff1681526020016002820160149054906101000a900460ff161515151581525050848681518110610fb957610fb8613f23565b5b6020026020010181905250600185610fd19190613f81565b94505b50508080610fe190613fd7565b915050610ecc565b5080935050505090565b61100e8383836040518060200160405280600081525061166d565b505050565b600060011515600b83604051611029919061405b565b908152602001604051809103902060009054906101000a900460ff161515149050919050565b6000611059610a63565b821061109a576040517f08c379a000000000000000000000000000000000000000000000000000000000815260040161109190613f03565b60405180910390fd5b600f82815481106110ae576110ad613f23565b5b90600052602060002001549050919050565b6000806002600084815260200190815260200160002060009054906101000a900473ffffffffffffffffffffffffffffffffffffffff169050600073ffffffffffffffffffffffffffffffffffffffff168173ffffffffffffffffffffffffffffffffffffffff1603611168576040517f08c379a000000000000000000000000000000000000000000000000000000000815260040161115f906140e4565b60405180910390fd5b80915050919050565b611179613024565b600c600083815260200190815260200160002060405180608001604052908160008201548152602001600182015481526020016002820160009054906101000a900473ffffffffffffffffffffffffffffffffffffffff1673ffffffffffffffffffffffffffffffffffffffff1673ffffffffffffffffffffffffffffffffffffffff1681526020016002820160149054906101000a900460ff1615151515815250509050919050565b60008073ffffffffffffffffffffffffffffffffffffffff168273ffffffffffffffffffffffffffffffffffffffff1603611293576040517f08c379a000000000000000000000000000000000000000000000000000000000815260040161128a90614176565b60405180910390fd5b600360008373ffffffffffffffffffffffffffffffffffffffff1673ffffffffffffffffffffffffffffffffffffffff168152602001908152602001600020549050919050565b606060006112e733611223565b905060008167ffffffffffffffff81111561130557611304613590565b5b60405190808252806020026020018201604052801561133e57816020015b61132b613024565b8152602001906001900390816113235790505b50905060005b828110156114355760006113583383610db4565b90506000600c600083815260200190815260200160002090508060405180608001604052908160008201548152602001600182015481526020016002820160009054906101000a900473ffffffffffffffffffffffffffffffffffffffff1673ffffffffffffffffffffffffffffffffffffffff1673ffffffffffffffffffffffffffffffffffffffff1681526020016002820160149054906101000a900460ff16151515158152505084848151811061141557611414613f23565b5b60200260200101819052505050808061142d90613fd7565b915050611344565b50809250505090565b611446611ba8565b73ffffffffffffffffffffffffffffffffffffffff1661146461159b565b73ffffffffffffffffffffffffffffffffffffffff16146114ba576040517f08c379a00000000000000000000000000000000000000000000000000000000081526004016114b1906141e2565b60405180910390fd5b6114c4600061202d565b565b6114cf816120f3565b50565b6114da611ba8565b73ffffffffffffffffffffffffffffffffffffffff166114f861159b565b73ffffffffffffffffffffffffffffffffffffffff161461154e576040517f08c379a0000000000000000000000000000000000000000000000000000000008152600401611545906141e2565b60405180910390fd5b60008111611591576040517f08c379a00000000000000000000000000000000000000000000000000000000081526004016115889061424e565b60405180910390fd5b8060088190555050565b6000600760009054906101000a900473ffffffffffffffffffffffffffffffffffffffff16905090565b6060600180546115d4906139fc565b80601f0160208091040260200160405190810160405280929190818152602001828054611600906139fc565b801561164d5780601f106116225761010080835404028352916020019161164d565b820191906000526020600020905b81548152906001019060200180831161163057829003601f168201915b5050505050905090565b611669611662611ba8565b8383612146565b5050565b61167e611678611ba8565b83611c7f565b6116bd576040517f08c379a00000000000000000000000000000000000000000000000000000000081526004016116b490613dbf565b60405180910390fd5b6116c9848484846122b2565b50505050565b60006116da83611013565b1561171a576040517f08c379a0000000000000000000000000000000000000000000000000000000008152600401611711906142ba565b60405180910390fd5b600854341461175e576040517f08c379a00000000000000000000000000000000000000000000000000000000081526004016117559061434c565b60405180910390fd5b611768600a611c69565b6117726009611c69565b600061177e600a61201f565b905061178a338261230e565b611794818561232c565b61179e8184612399565b6001600b856040516117b0919061405b565b908152602001604051809103902060006101000a81548160ff0219169083151502179055508091505092915050565b60085481565b60606117f082611b3c565b61182f576040517f08c379a0000000000000000000000000000000000000000000000000000000008152600401611826906143de565b60405180910390fd5b600060066000848152602001908152602001600020805461184f906139fc565b80601f016020809104026020016040519081016040528092919081815260200182805461187b906139fc565b80156118c85780601f1061189d576101008083540402835291602001916118c8565b820191906000526020600020905b8154815290600101906020018083116118ab57829003601f168201915b5050505050905060006118d96124e9565b905060008151036118ee578192505050611931565b60008251111561192357808260405160200161190b9291906143fe565b60405160208183030381529060405292505050611931565b61192c84612500565b925050505b919050565b6000611942600961201f565b905090565b6000600560008473ffffffffffffffffffffffffffffffffffffffff1673ffffffffffffffffffffffffffffffffffffffff16815260200190815260200160002060008373ffffffffffffffffffffffffffffffffffffffff1673ffffffffffffffffffffffffffffffffffffffff16815260200190815260200160002060009054906101000a900460ff16905092915050565b6119e3611ba8565b73ffffffffffffffffffffffffffffffffffffffff16611a0161159b565b73ffffffffffffffffffffffffffffffffffffffff1614611a57576040517f08c379a0000000000000000000000000000000000000000000000000000000008152600401611a4e906141e2565b60405180910390fd5b600073ffffffffffffffffffffffffffffffffffffffff168173ffffffffffffffffffffffffffffffffffffffff1603611ac6576040517f08c379a0000000000000000000000000000000000000000000000000000000008152600401611abd90614494565b60405180910390fd5b611acf8161202d565b50565b60007f01ffc9a7000000000000000000000000000000000000000000000000000000007bffffffffffffffffffffffffffffffffffffffffffffffffffffffff1916827bffffffffffffffffffffffffffffffffffffffffffffffffffffffff1916149050919050565b60008073ffffffffffffffffffffffffffffffffffffffff166002600084815260200190815260200160002060009054906101000a900473ffffffffffffffffffffffffffffffffffffffff1673ffffffffffffffffffffffffffffffffffffffff1614159050919050565b600033905090565b816004600083815260200190815260200160002060006101000a81548173ffffffffffffffffffffffffffffffffffffffff021916908373ffffffffffffffffffffffffffffffffffffffff160217905550808273ffffffffffffffffffffffffffffffffffffffff16611c23836110c0565b73ffffffffffffffffffffffffffffffffffffffff167f8c5be1e5ebec7d5bd14f71427d1e84f3dd0314c0f7b2291e5b200ac8c7c3b92560405160405180910390a45050565b6001816000016000828254019250508190555050565b6000611c8a82611b3c565b611cc9576040517f08c379a0000000000000000000000000000000000000000000000000000000008152600401611cc090614526565b60405180910390fd5b6000611cd4836110c0565b90508073ffffffffffffffffffffffffffffffffffffffff168473ffffffffffffffffffffffffffffffffffffffff161480611d165750611d158185611947565b5b80611d5457508373ffffffffffffffffffffffffffffffffffffffff16611d3c846108c7565b73ffffffffffffffffffffffffffffffffffffffff16145b91505092915050565b8273ffffffffffffffffffffffffffffffffffffffff16611d7d826110c0565b73ffffffffffffffffffffffffffffffffffffffff1614611dd3576040517f08c379a0000000000000000000000000000000000000000000000000000000008152600401611dca906145b8565b60405180910390fd5b600073ffffffffffffffffffffffffffffffffffffffff168273ffffffffffffffffffffffffffffffffffffffff1603611e42576040517f08c379a0000000000000000000000000000000000000000000000000000000008152600401611e399061464a565b60405180910390fd5b611e4d8383836125a7565b611e58600082611bb0565b6001600360008573ffffffffffffffffffffffffffffffffffffffff1673ffffffffffffffffffffffffffffffffffffffff1681526020019081526020016000206000828254611ea8919061466a565b925050819055506001600360008473ffffffffffffffffffffffffffffffffffffffff1673ffffffffffffffffffffffffffffffffffffffff1681526020019081526020016000206000828254611eff9190613f81565b92505081905550816002600083815260200190815260200160002060006101000a81548173ffffffffffffffffffffffffffffffffffffffff021916908373ffffffffffffffffffffffffffffffffffffffff160217905550808273ffffffffffffffffffffffffffffffffffffffff168473ffffffffffffffffffffffffffffffffffffffff167fddf252ad1be2c89b69c2b068fc378daa952ba7f163c4a11628f55a4df523b3ef60405160405180910390a4611fbe8383836126b9565b505050565b6000816000015490506000811161200f576040517f08c379a0000000000000000000000000000000000000000000000000000000008152600401612006906146ea565b60405180910390fd5b6001810382600001819055505050565b600081600001549050919050565b6000600760009054906101000a900473ffffffffffffffffffffffffffffffffffffffff16905081600760006101000a81548173ffffffffffffffffffffffffffffffffffffffff021916908373ffffffffffffffffffffffffffffffffffffffff1602179055508173ffffffffffffffffffffffffffffffffffffffff168173ffffffffffffffffffffffffffffffffffffffff167f8be0079c531659141344cd1fd0a4f28419497f9722a3daafe3b4186f6b6457e060405160405180910390a35050565b6120fc816126be565b600060066000838152602001908152602001600020805461211c906139fc565b905014612143576006600082815260200190815260200160002060006121429190613064565b5b50565b8173ffffffffffffffffffffffffffffffffffffffff168373ffffffffffffffffffffffffffffffffffffffff16036121b4576040517f08c379a00000000000000000000000000000000000000000000000000000000081526004016121ab90614756565b60405180910390fd5b80600560008573ffffffffffffffffffffffffffffffffffffffff1673ffffffffffffffffffffffffffffffffffffffff16815260200190815260200160002060008473ffffffffffffffffffffffffffffffffffffffff1673ffffffffffffffffffffffffffffffffffffffff16815260200190815260200160002060006101000a81548160ff0219169083151502179055508173ffffffffffffffffffffffffffffffffffffffff168373ffffffffffffffffffffffffffffffffffffffff167f17307eab39ab6107e8899845ad3d59bd9653f200f220920489ca2b5937696c31836040516122a59190613175565b60405180910390a3505050565b6122bd848484611d5d565b6122c9848484846127db565b612308576040517f08c379a00000000000000000000000000000000000000000000000000000000081526004016122ff906147e8565b60405180910390fd5b50505050565b612328828260405180602001604052806000815250612962565b5050565b61233582611b3c565b612374576040517f08c379a000000000000000000000000000000000000000000000000000000000815260040161236b9061487a565b60405180910390fd5b806006600084815260200190815260200160002090816123949190614a46565b505050565b600081116123dc576040517f08c379a00000000000000000000000000000000000000000000000000000000081526004016123d39061424e565b60405180910390fd5b60405180608001604052808381526020018281526020013373ffffffffffffffffffffffffffffffffffffffff16815260200160011515815250600c6000848152602001908152602001600020600082015181600001556020820151816001015560408201518160020160006101000a81548173ffffffffffffffffffffffffffffffffffffffff021916908373ffffffffffffffffffffffffffffffffffffffff16021790555060608201518160020160146101000a81548160ff0219169083151502179055509050507f470031062672bc0246e132c723a729c4676710ec663a29e86c88678032daddea82823360016040516124dd9493929190614b18565b60405180910390a15050565b606060405180602001604052806000815250905090565b606061250b82611b3c565b61254a576040517f08c379a000000000000000000000000000000000000000000000000000000000815260040161254190614bcf565b60405180910390fd5b60006125546124e9565b90506000815111612574576040518060200160405280600081525061259f565b8061257e846129bd565b60405160200161258f9291906143fe565b6040516020818303038152906040525b915050919050565b6125b2838383612b1d565b600073ffffffffffffffffffffffffffffffffffffffff168373ffffffffffffffffffffffffffffffffffffffff16036125f4576125ef81612b22565b612633565b8173ffffffffffffffffffffffffffffffffffffffff168373ffffffffffffffffffffffffffffffffffffffff1614612632576126318382612b6b565b5b5b600073ffffffffffffffffffffffffffffffffffffffff168273ffffffffffffffffffffffffffffffffffffffff16036126755761267081612cd8565b6126b4565b8273ffffffffffffffffffffffffffffffffffffffff168273ffffffffffffffffffffffffffffffffffffffff16146126b3576126b28282612da9565b5b5b505050565b505050565b60006126c9826110c0565b90506126d7816000846125a7565b6126e2600083611bb0565b6001600360008373ffffffffffffffffffffffffffffffffffffffff1673ffffffffffffffffffffffffffffffffffffffff1681526020019081526020016000206000828254612732919061466a565b925050819055506002600083815260200190815260200160002060006101000a81549073ffffffffffffffffffffffffffffffffffffffff021916905581600073ffffffffffffffffffffffffffffffffffffffff168273ffffffffffffffffffffffffffffffffffffffff167fddf252ad1be2c89b69c2b068fc378daa952ba7f163c4a11628f55a4df523b3ef60405160405180910390a46127d7816000846126b9565b5050565b60006127fc8473ffffffffffffffffffffffffffffffffffffffff16612e28565b15612955578373ffffffffffffffffffffffffffffffffffffffff1663150b7a02612825611ba8565b8786866040518563ffffffff1660e01b81526004016128479493929190614c44565b6020604051808303816000875af192505050801561288357506040513d601f19601f820116820180604052508101906128809190614ca5565b60015b612905573d80600081146128b3576040519150601f19603f3d011682016040523d82523d6000602084013e6128b8565b606091505b5060008151036128fd576040517f08c379a00000000000000000000000000000000000000000000000000000000081526004016128f4906147e8565b60405180910390fd5b805181602001fd5b63150b7a0260e01b7bffffffffffffffffffffffffffffffffffffffffffffffffffffffff1916817bffffffffffffffffffffffffffffffffffffffffffffffffffffffff19161491505061295a565b600190505b949350505050565b61296c8383612e4b565b61297960008484846127db565b6129b8576040517f08c379a00000000000000000000000000000000000000000000000000000000081526004016129af906147e8565b60405180910390fd5b505050565b606060008203612a04576040518060400160405280600181526020017f30000000000000000000000000000000000000000000000000000000000000008152509050612b18565b600082905060005b60008214612a36578080612a1f90613fd7565b915050600a82612a2f9190614d01565b9150612a0c565b60008167ffffffffffffffff811115612a5257612a51613590565b5b6040519080825280601f01601f191660200182016040528015612a845781602001600182028036833780820191505090505b5090505b60008514612b1157600182612a9d919061466a565b9150600a85612aac9190614d32565b6030612ab89190613f81565b60f81b818381518110612ace57612acd613f23565b5b60200101907effffffffffffffffffffffffffffffffffffffffffffffffffffffffffffff1916908160001a905350600a85612b0a9190614d01565b9450612a88565b8093505050505b919050565b505050565b600f805490506010600083815260200190815260200160002081905550600f81908060018154018082558091505060019003906000526020600020016000909190919091505550565b60006001612b7884611223565b612b82919061466a565b90506000600e6000848152602001908152602001600020549050818114612c67576000600d60008673ffffffffffffffffffffffffffffffffffffffff1673ffffffffffffffffffffffffffffffffffffffff168152602001908152602001600020600084815260200190815260200160002054905080600d60008773ffffffffffffffffffffffffffffffffffffffff1673ffffffffffffffffffffffffffffffffffffffff16815260200190815260200160002060008481526020019081526020016000208190555081600e600083815260200190815260200160002081905550505b600e600084815260200190815260200160002060009055600d60008573ffffffffffffffffffffffffffffffffffffffff1673ffffffffffffffffffffffffffffffffffffffff16815260200190815260200160002060008381526020019081526020016000206000905550505050565b60006001600f80549050612cec919061466a565b90506000601060008481526020019081526020016000205490506000600f8381548110612d1c57612d1b613f23565b5b9060005260206000200154905080600f8381548110612d3e57612d3d613f23565b5b90600052602060002001819055508160106000838152602001908152602001600020819055506010600085815260200190815260200160002060009055600f805480612d8d57612d8c614d63565b5b6001900381819060005260206000200160009055905550505050565b6000612db483611223565b905081600d60008573ffffffffffffffffffffffffffffffffffffffff1673ffffffffffffffffffffffffffffffffffffffff16815260200190815260200160002060008381526020019081526020016000208190555080600e600084815260200190815260200160002081905550505050565b6000808273ffffffffffffffffffffffffffffffffffffffff163b119050919050565b600073ffffffffffffffffffffffffffffffffffffffff168273ffffffffffffffffffffffffffffffffffffffff1603612eba576040517f08c379a0000000000000000000000000000000000000000000000000000000008152600401612eb190614dde565b60405180910390fd5b612ec381611b3c565b15612f03576040517f08c379a0000000000000000000000000000000000000000000000000000000008152600401612efa90614e4a565b60405180910390fd5b612f0f600083836125a7565b6001600360008473ffffffffffffffffffffffffffffffffffffffff1673ffffffffffffffffffffffffffffffffffffffff1681526020019081526020016000206000828254612f5f9190613f81565b92505081905550816002600083815260200190815260200160002060006101000a81548173ffffffffffffffffffffffffffffffffffffffff021916908373ffffffffffffffffffffffffffffffffffffffff160217905550808273ffffffffffffffffffffffffffffffffffffffff16600073ffffffffffffffffffffffffffffffffffffffff167fddf252ad1be2c89b69c2b068fc378daa952ba7f163c4a11628f55a4df523b3ef60405160405180910390a4613020600083836126b9565b5050565b60405180608001604052806000815260200160008152602001600073ffffffffffffffffffffffffffffffffffffffff1681526020016000151581525090565b508054613070906139fc565b6000825580601f1061308257506130a1565b601f0160209004906000526020600020908101906130a091906130a4565b5b50565b5b808211156130bd5760008160009055506001016130a5565b5090565b6000604051905090565b600080fd5b600080fd5b60007fffffffff0000000000000000000000000000000000000000000000000000000082169050919050565b61310a816130d5565b811461311557600080fd5b50565b60008135905061312781613101565b92915050565b600060208284031215613143576131426130cb565b5b600061315184828501613118565b91505092915050565b60008115159050919050565b61316f8161315a565b82525050565b600060208201905061318a6000830184613166565b92915050565b600081519050919050565b600082825260208201905092915050565b60005b838110156131ca5780820151818401526020810190506131af565b838111156131d9576000848401525b50505050565b6000601f19601f8301169050919050565b60006131fb82613190565b613205818561319b565b93506132158185602086016131ac565b61321e816131df565b840191505092915050565b6000602082019050818103600083015261324381846131f0565b905092915050565b6000819050919050565b61325e8161324b565b811461326957600080fd5b50565b60008135905061327b81613255565b92915050565b600060208284031215613297576132966130cb565b5b60006132a58482850161326c565b91505092915050565b600073ffffffffffffffffffffffffffffffffffffffff82169050919050565b60006132d9826132ae565b9050919050565b6132e9816132ce565b82525050565b600060208201905061330460008301846132e0565b92915050565b613313816132ce565b811461331e57600080fd5b50565b6000813590506133308161330a565b92915050565b6000806040838503121561334d5761334c6130cb565b5b600061335b85828601613321565b925050602061336c8582860161326c565b9150509250929050565b61337f8161324b565b82525050565b600060208201905061339a6000830184613376565b92915050565b600080604083850312156133b7576133b66130cb565b5b60006133c58582860161326c565b92505060206133d68582860161326c565b9150509250929050565b6000806000606084860312156133f9576133f86130cb565b5b600061340786828701613321565b935050602061341886828701613321565b92505060406134298682870161326c565b9150509250925092565b600081519050919050565b600082825260208201905092915050565b6000819050602082019050919050565b6134688161324b565b82525050565b613477816132ce565b82525050565b6134868161315a565b82525050565b6080820160008201516134a2600085018261345f565b5060208201516134b5602085018261345f565b5060408201516134c8604085018261346e565b5060608201516134db606085018261347d565b50505050565b60006134ed838361348c565b60808301905092915050565b6000602082019050919050565b600061351182613433565b61351b818561343e565b93506135268361344f565b8060005b8381101561355757815161353e88826134e1565b9750613549836134f9565b92505060018101905061352a565b5085935050505092915050565b6000602082019050818103600083015261357e8184613506565b905092915050565b600080fd5b600080fd5b7f4e487b7100000000000000000000000000000000000000000000000000000000600052604160045260246000fd5b6135c8826131df565b810181811067ffffffffffffffff821117156135e7576135e6613590565b5b80604052505050565b60006135fa6130c1565b905061360682826135bf565b919050565b600067ffffffffffffffff82111561362657613625613590565b5b61362f826131df565b9050602081019050919050565b82818337600083830152505050565b600061365e6136598461360b565b6135f0565b90508281526020810184848401111561367a5761367961358b565b5b61368584828561363c565b509392505050565b600082601f8301126136a2576136a1613586565b5b81356136b284826020860161364b565b91505092915050565b6000602082840312156136d1576136d06130cb565b5b600082013567ffffffffffffffff8111156136ef576136ee6130d0565b5b6136fb8482850161368d565b91505092915050565b60808201600082015161371a600085018261345f565b50602082015161372d602085018261345f565b506040820151613740604085018261346e565b506060820151613753606085018261347d565b50505050565b600060808201905061376e6000830184613704565b92915050565b60006020828403121561378a576137896130cb565b5b600061379884828501613321565b91505092915050565b6137aa8161315a565b81146137b557600080fd5b50565b6000813590506137c7816137a1565b92915050565b600080604083850312156137e4576137e36130cb565b5b60006137f285828601613321565b9250506020613803858286016137b8565b9150509250929050565b600067ffffffffffffffff82111561382857613827613590565b5b613831826131df565b9050602081019050919050565b600061385161384c8461380d565b6135f0565b90508281526020810184848401111561386d5761386c61358b565b5b61387884828561363c565b509392505050565b600082601f83011261389557613894613586565b5b81356138a584826020860161383e565b91505092915050565b600080600080608085870312156138c8576138c76130cb565b5b60006138d687828801613321565b94505060206138e787828801613321565b93505060406138f88782880161326c565b925050606085013567ffffffffffffffff811115613919576139186130d0565b5b61392587828801613880565b91505092959194509250565b60008060408385031215613948576139476130cb565b5b600083013567ffffffffffffffff811115613966576139656130d0565b5b6139728582860161368d565b92505060206139838582860161326c565b9150509250929050565b600080604083850312156139a4576139a36130cb565b5b60006139b285828601613321565b92505060206139c385828601613321565b9150509250929050565b7f4e487b7100000000000000000000000000000000000000000000000000000000600052602260045260246000fd5b60006002820490506001821680613a1457607f821691505b602082108103613a2757613a266139cd565b5b50919050565b7f4552433732313a20617070726f76656420717565727920666f72206e6f6e657860008201527f697374656e7420746f6b656e0000000000000000000000000000000000000000602082015250565b6000613a89602c8361319b565b9150613a9482613a2d565b604082019050919050565b60006020820190508181036000830152613ab881613a7c565b9050919050565b7f4552433732313a20617070726f76616c20746f2063757272656e74206f776e6560008201527f7200000000000000000000000000000000000000000000000000000000000000602082015250565b6000613b1b60218361319b565b9150613b2682613abf565b604082019050919050565b60006020820190508181036000830152613b4a81613b0e565b9050919050565b7f4552433732313a20617070726f76652063616c6c6572206973206e6f74206f7760008201527f6e6572206e6f7220617070726f76656420666f7220616c6c0000000000000000602082015250565b6000613bad60388361319b565b9150613bb882613b51565b604082019050919050565b60006020820190508181036000830152613bdc81613ba0565b9050919050565b7f596f7520617265206e6f74206f776e6572206f662074686973206e6674000000600082015250565b6000613c19601d8361319b565b9150613c2482613be3565b602082019050919050565b60006020820190508181036000830152613c4881613c0c565b9050919050565b7f4974656d20697320616c7265616479206f6e2073616c65000000000000000000600082015250565b6000613c8560178361319b565b9150613c9082613c4f565b602082019050919050565b60006020820190508181036000830152613cb481613c78565b9050919050565b7f5072696365206d75737420626520657175616c20746f206c69737465696e672060008201527f7072696365000000000000000000000000000000000000000000000000000000602082015250565b6000613d1760258361319b565b9150613d2282613cbb565b604082019050919050565b60006020820190508181036000830152613d4681613d0a565b9050919050565b7f4552433732313a207472616e736665722063616c6c6572206973206e6f74206f60008201527f776e6572206e6f7220617070726f766564000000000000000000000000000000602082015250565b6000613da960318361319b565b9150613db482613d4d565b604082019050919050565b60006020820190508181036000830152613dd881613d9c565b9050919050565b7f596f7520616c7265616479206f776e2074686973204e46540000000000000000600082015250565b6000613e1560188361319b565b9150613e2082613ddf565b602082019050919050565b60006020820190508181036000830152613e4481613e08565b9050919050565b7f506c65617365207375626d6974207468652061736b696e672070726963650000600082015250565b6000613e81601e8361319b565b9150613e8c82613e4b565b602082019050919050565b60006020820190508181036000830152613eb081613e74565b9050919050565b7f496e646578206f7574206f6620626f756e647300000000000000000000000000600082015250565b6000613eed60138361319b565b9150613ef882613eb7565b602082019050919050565b60006020820190508181036000830152613f1c81613ee0565b9050919050565b7f4e487b7100000000000000000000000000000000000000000000000000000000600052603260045260246000fd5b7f4e487b7100000000000000000000000000000000000000000000000000000000600052601160045260246000fd5b6000613f8c8261324b565b9150613f978361324b565b9250827fffffffffffffffffffffffffffffffffffffffffffffffffffffffffffffffff03821115613fcc57613fcb613f52565b5b828201905092915050565b6000613fe28261324b565b91507fffffffffffffffffffffffffffffffffffffffffffffffffffffffffffffffff820361401457614013613f52565b5b600182019050919050565b600081905092915050565b600061403582613190565b61403f818561401f565b935061404f8185602086016131ac565b80840191505092915050565b6000614067828461402a565b915081905092915050565b7f4552433732313a206f776e657220717565727920666f72206e6f6e657869737460008201527f656e7420746f6b656e0000000000000000000000000000000000000000000000602082015250565b60006140ce60298361319b565b91506140d982614072565b604082019050919050565b600060208201905081810360008301526140fd816140c1565b9050919050565b7f4552433732313a2062616c616e636520717565727920666f7220746865207a6560008201527f726f206164647265737300000000000000000000000000000000000000000000602082015250565b6000614160602a8361319b565b915061416b82614104565b604082019050919050565b6000602082019050818103600083015261418f81614153565b9050919050565b7f4f776e61626c653a2063616c6c6572206973206e6f7420746865206f776e6572600082015250565b60006141cc60208361319b565b91506141d782614196565b602082019050919050565b600060208201905081810360008301526141fb816141bf565b9050919050565b7f5072696365206d757374206265206174206c6561737420312077656900000000600082015250565b6000614238601c8361319b565b915061424382614202565b602082019050919050565b600060208201905081810360008301526142678161422b565b9050919050565b7f546f6b656e2055524920616c7265616479206578697374730000000000000000600082015250565b60006142a460188361319b565b91506142af8261426e565b602082019050919050565b600060208201905081810360008301526142d381614297565b9050919050565b7f5072696365206d75737420626520657175616c20746f206c697374696e67207060008201527f7269636500000000000000000000000000000000000000000000000000000000602082015250565b600061433660248361319b565b9150614341826142da565b604082019050919050565b6000602082019050818103600083015261436581614329565b9050919050565b7f45524337323155524953746f726167653a2055524920717565727920666f722060008201527f6e6f6e6578697374656e7420746f6b656e000000000000000000000000000000602082015250565b60006143c860318361319b565b91506143d38261436c565b604082019050919050565b600060208201905081810360008301526143f7816143bb565b9050919050565b600061440a828561402a565b9150614416828461402a565b91508190509392505050565b7f4f776e61626c653a206e6577206f776e657220697320746865207a65726f206160008201527f6464726573730000000000000000000000000000000000000000000000000000602082015250565b600061447e60268361319b565b915061448982614422565b604082019050919050565b600060208201905081810360008301526144ad81614471565b9050919050565b7f4552433732313a206f70657261746f7220717565727920666f72206e6f6e657860008201527f697374656e7420746f6b656e0000000000000000000000000000000000000000602082015250565b6000614510602c8361319b565b915061451b826144b4565b604082019050919050565b6000602082019050818103600083015261453f81614503565b9050919050565b7f4552433732313a207472616e736665722066726f6d20696e636f72726563742060008201527f6f776e6572000000000000000000000000000000000000000000000000000000602082015250565b60006145a260258361319b565b91506145ad82614546565b604082019050919050565b600060208201905081810360008301526145d181614595565b9050919050565b7f4552433732313a207472616e7366657220746f20746865207a65726f2061646460008201527f7265737300000000000000000000000000000000000000000000000000000000602082015250565b600061463460248361319b565b915061463f826145d8565b604082019050919050565b6000602082019050818103600083015261466381614627565b9050919050565b60006146758261324b565b91506146808361324b565b92508282101561469357614692613f52565b5b828203905092915050565b7f436f756e7465723a2064656372656d656e74206f766572666c6f770000000000600082015250565b60006146d4601b8361319b565b91506146df8261469e565b602082019050919050565b60006020820190508181036000830152614703816146c7565b9050919050565b7f4552433732313a20617070726f766520746f2063616c6c657200000000000000600082015250565b600061474060198361319b565b915061474b8261470a565b602082019050919050565b6000602082019050818103600083015261476f81614733565b9050919050565b7f4552433732313a207472616e7366657220746f206e6f6e20455243373231526560008201527f63656976657220696d706c656d656e7465720000000000000000000000000000602082015250565b60006147d260328361319b565b91506147dd82614776565b604082019050919050565b60006020820190508181036000830152614801816147c5565b9050919050565b7f45524337323155524953746f726167653a2055524920736574206f66206e6f6e60008201527f6578697374656e7420746f6b656e000000000000000000000000000000000000602082015250565b6000614864602e8361319b565b915061486f82614808565b604082019050919050565b6000602082019050818103600083015261489381614857565b9050919050565b60008190508160005260206000209050919050565b60006020601f8301049050919050565b600082821b905092915050565b6000600883026148fc7fffffffffffffffffffffffffffffffffffffffffffffffffffffffffffffffff826148bf565b61490686836148bf565b95508019841693508086168417925050509392505050565b6000819050919050565b600061494361493e6149398461324b565b61491e565b61324b565b9050919050565b6000819050919050565b61495d83614928565b6149716149698261494a565b8484546148cc565b825550505050565b600090565b614986614979565b614991818484614954565b505050565b5b818110156149b5576149aa60008261497e565b600181019050614997565b5050565b601f8211156149fa576149cb8161489a565b6149d4846148af565b810160208510156149e3578190505b6149f76149ef856148af565b830182614996565b50505b505050565b600082821c905092915050565b6000614a1d600019846008026149ff565b1980831691505092915050565b6000614a368383614a0c565b9150826002028217905092915050565b614a4f82613190565b67ffffffffffffffff811115614a6857614a67613590565b5b614a7282546139fc565b614a7d8282856149b9565b600060209050601f831160018114614ab05760008415614a9e578287015190505b614aa88582614a2a565b865550614b10565b601f198416614abe8661489a565b60005b82811015614ae657848901518255600182019150602085019450602081019050614ac1565b86831015614b035784890151614aff601f891682614a0c565b8355505b6001600288020188555050505b505050505050565b6000608082019050614b2d6000830187613376565b614b3a6020830186613376565b614b4760408301856132e0565b614b546060830184613166565b95945050505050565b7f4552433732314d657461646174613a2055524920717565727920666f72206e6f60008201527f6e6578697374656e7420746f6b656e0000000000000000000000000000000000602082015250565b6000614bb9602f8361319b565b9150614bc482614b5d565b604082019050919050565b60006020820190508181036000830152614be881614bac565b9050919050565b600081519050919050565b600082825260208201905092915050565b6000614c1682614bef565b614c208185614bfa565b9350614c308185602086016131ac565b614c39816131df565b840191505092915050565b6000608082019050614c5960008301876132e0565b614c6660208301866132e0565b614c736040830185613376565b8181036060830152614c858184614c0b565b905095945050505050565b600081519050614c9f81613101565b92915050565b600060208284031215614cbb57614cba6130cb565b5b6000614cc984828501614c90565b91505092915050565b7f4e487b7100000000000000000000000000000000000000000000000000000000600052601260045260246000fd5b6000614d0c8261324b565b9150614d178361324b565b925082614d2757614d26614cd2565b5b828204905092915050565b6000614d3d8261324b565b9150614d488361324b565b925082614d5857614d57614cd2565b5b828206905092915050565b7f4e487b7100000000000000000000000000000000000000000000000000000000600052603160045260246000fd5b7f4552433732313a206d696e7420746f20746865207a65726f2061646472657373600082015250565b6000614dc860208361319b565b9150614dd382614d92565b602082019050919050565b60006020820190508181036000830152614df781614dbb565b9050919050565b7f4552433732313a20746f6b656e20616c7265616479206d696e74656400000000600082015250565b6000614e34601c8361319b565b9150614e3f82614dfe565b602082019050919050565b60006020820190508181036000830152614e6381614e27565b905091905056fea264697066735822122071f7f92956c57079cd29dbf04776472543579666ee36d2e60c9a6a3597f0e76a64736f6c634300080f0033",
  "immutableReferences": {},
  "source": "// SPDX-License-Identifier: MIT\npragma solidity >=0.4.22 <0.9.0;\n\nimport \"@openzeppelin/contracts/token/ERC721/extensions/ERC721URIStorage.sol\";\nimport \"@openzeppelin/contracts/utils/Counters.sol\";\nimport \"@openzeppelin/contracts/access/Ownable.sol\";\n\ncontract NftMarket is ERC721URIStorage, Ownable {\n  using Counters for Counters.Counter;\n\n  struct NftItem {\n    uint tokenId;\n    uint price;\n    address creator;\n    bool isListed;\n  }\n\n  uint public listingPrice = 0.025 ether;\n\n  Counters.Counter private _listedItems;\n  Counters.Counter private _tokenIds;\n\n  mapping(string => bool) private _usedTokenURIs;\n  mapping(uint => NftItem) private _idToNftItem;\n\n  mapping(address => mapping(uint => uint)) private _ownedTokens;\n  mapping(uint => uint) private _idToOwnedIndex;\n\n  uint256[] private _allNfts;\n  mapping(uint => uint) private _idToNftIndex;\n\n  event NftItemCreated (\n    uint tokenId,\n    uint price,\n    address creator,\n    bool isListed\n  );\n\n  constructor() ERC721(\"CreaturesNFT\", \"CNFT\") {}\n\n  function setListingPrice(uint newPrice) external onlyOwner {\n    require(newPrice > 0, \"Price must be at least 1 wei\");\n    listingPrice = newPrice;\n  }\n\n  function getNftItem(uint tokenId) public view returns (NftItem memory) {\n    return _idToNftItem[tokenId];\n  }\n\n  function listedItemsCount() public view returns (uint) {\n    return _listedItems.current();\n  }\n\n  function tokenURIExists(string memory tokenURI) public view returns (bool) {\n    return _usedTokenURIs[tokenURI] == true;\n  }\n\n  function totalSupply() public view returns (uint) {\n    return _allNfts.length;\n  }\n\n  function tokenByIndex(uint index) public view returns (uint) {\n    require(index < totalSupply(), \"Index out of bounds\");\n    return _allNfts[index];\n  }\n\n  function tokenOfOwnerByIndex(address owner, uint index) public view returns (uint) {\n    require(index < ERC721.balanceOf(owner), \"Index out of bounds\");\n    return _ownedTokens[owner][index];\n  }\n\n  function getAllNftsOnSale() public view returns (NftItem[] memory) {\n    uint allItemsCounts = totalSupply();\n    uint currentIndex = 0;\n    NftItem[] memory items = new NftItem[](_listedItems.current());\n\n    for (uint i = 0; i < allItemsCounts; i++) {\n      uint tokenId = tokenByIndex(i);\n      NftItem storage item = _idToNftItem[tokenId];\n\n      if (item.isListed == true) {\n        items[currentIndex] = item;\n        currentIndex += 1;\n      }\n    }\n\n    return items;\n  }\n\n  function getOwnedNfts() public view returns (NftItem[] memory) {\n    uint ownedItemsCount = ERC721.balanceOf(msg.sender);\n    NftItem[] memory items = new NftItem[](ownedItemsCount);\n\n    for (uint i = 0; i < ownedItemsCount; i++) {\n      uint tokenId = tokenOfOwnerByIndex(msg.sender, i);\n      NftItem storage item = _idToNftItem[tokenId];\n      items[i] = item;\n    }\n\n    return items;\n  }\n\n  function burnToken(uint tokenId) public {\n    _burn(tokenId);\n  }\n\n  function mintToken(string memory tokenURI, uint price) public payable returns (uint) {\n    require(!tokenURIExists(tokenURI), \"Token URI already exists\");\n    require(msg.value == listingPrice, \"Price must be equal to listing price\");\n\n    _tokenIds.increment();\n    _listedItems.increment();\n\n    uint newTokenId = _tokenIds.current();\n\n    _safeMint(msg.sender, newTokenId);\n    _setTokenURI(newTokenId, tokenURI);\n    _createNftItem(newTokenId, price);\n    _usedTokenURIs[tokenURI] = true;\n\n    return newTokenId;\n  }\n\n  function buyNft(\n    uint tokenId\n  ) public payable {\n    uint price = _idToNftItem[tokenId].price;\n    address owner = ERC721.ownerOf(tokenId);\n\n    require(msg.sender != owner, \"You already own this NFT\");\n    require(msg.value == price, \"Please submit the asking price\");\n\n    _idToNftItem[tokenId].isListed = false;\n    _listedItems.decrement();\n\n    _transfer(owner, msg.sender, tokenId);\n    payable(owner).transfer(msg.value);\n  }\n\n  function placeNftOnSale(uint tokenId, uint newPrice) public payable {\n    require(ERC721.ownerOf(tokenId) == msg.sender, \"You are not owner of this nft\");\n    require(_idToNftItem[tokenId].isListed == false, \"Item is already on sale\");\n    require(msg.value == listingPrice, \"Price must be equal to listeing price\");\n\n    _idToNftItem[tokenId].isListed = true;\n    _idToNftItem[tokenId].price = newPrice;\n    _listedItems.increment();\n  }\n\n  function _createNftItem(\n    uint tokenId,\n    uint price\n  ) private {\n    require(price > 0, \"Price must be at least 1 wei\");\n\n    _idToNftItem[tokenId] = NftItem(\n      tokenId,\n      price,\n      msg.sender,\n      true\n    );\n\n    emit NftItemCreated(tokenId, price, msg.sender, true);\n  }\n\n  function _beforeTokenTransfer(\n    address from,\n    address to,\n    uint tokenId\n  ) internal virtual override {\n    super._beforeTokenTransfer(from, to, tokenId);\n\n    if (from == address(0)) {\n      _addTokenToAllTokensEnumeration(tokenId);\n    } else if (from != to) {\n      _removeTokenFromOwnerEnumeration(from, tokenId);\n    }\n\n    if (to == address(0)) {\n      _removeTokenFromAllTokensEnumeration(tokenId);\n    } else if (to != from) {\n      _addTokenToOwnerEnumeration(to, tokenId);\n    }\n  }\n\n  function _addTokenToAllTokensEnumeration(uint tokenId) private {\n    _idToNftIndex[tokenId] = _allNfts.length;\n    _allNfts.push(tokenId);\n  }\n\n  function _addTokenToOwnerEnumeration(address to, uint tokenId) private {\n    uint length = ERC721.balanceOf(to);\n    _ownedTokens[to][length] = tokenId;\n    _idToOwnedIndex[tokenId] = length;\n  }\n\n  function _removeTokenFromOwnerEnumeration(address from, uint tokenId) private {\n    uint lastTokenIndex = ERC721.balanceOf(from) - 1;\n    uint tokenIndex = _idToOwnedIndex[tokenId];\n\n    if (tokenIndex != lastTokenIndex) {\n      uint lastTokenId = _ownedTokens[from][lastTokenIndex];\n\n      _ownedTokens[from][tokenIndex] = lastTokenId;\n      _idToOwnedIndex[lastTokenId] = tokenIndex;\n    }\n\n    delete _idToOwnedIndex[tokenId];\n    delete _ownedTokens[from][lastTokenIndex];\n  }\n\n  function _removeTokenFromAllTokensEnumeration(uint tokenId) private {\n    uint lastTokenIndex = _allNfts.length - 1;\n    uint tokenIndex = _idToNftIndex[tokenId];\n    uint lastTokenId = _allNfts[lastTokenIndex];\n\n    _allNfts[tokenIndex] = lastTokenId;\n    _idToNftIndex[lastTokenId] = tokenIndex;\n\n    delete _idToNftIndex[tokenId];\n    _allNfts.pop();\n  }\n}",
  "sourcePath": "/Users/kazukiyamashina/programs/nft-marketplace/contracts/NftMarket.sol",
  "compiler": {
    "name": "solc",
    "version": "0.8.15+commit.e14f2714.Emscripten.clang"
  },
  "schemaVersion": "3.4.7",
  "updatedAt": "2023-05-30T00:17:51.627Z",
  "networkType": "ethereum",
  "devdoc": {
    "kind": "dev",
    "methods": {
      "approve(address,uint256)": {
        "details": "See {IERC721-approve}."
      },
      "balanceOf(address)": {
        "details": "See {IERC721-balanceOf}."
      },
      "getApproved(uint256)": {
        "details": "See {IERC721-getApproved}."
      },
      "isApprovedForAll(address,address)": {
        "details": "See {IERC721-isApprovedForAll}."
      },
      "name()": {
        "details": "See {IERC721Metadata-name}."
      },
      "owner()": {
        "details": "Returns the address of the current owner."
      },
      "ownerOf(uint256)": {
        "details": "See {IERC721-ownerOf}."
      },
      "renounceOwnership()": {
        "details": "Leaves the contract without owner. It will not be possible to call `onlyOwner` functions anymore. Can only be called by the current owner. NOTE: Renouncing ownership will leave the contract without an owner, thereby removing any functionality that is only available to the owner."
      },
      "safeTransferFrom(address,address,uint256)": {
        "details": "See {IERC721-safeTransferFrom}."
      },
      "safeTransferFrom(address,address,uint256,bytes)": {
        "details": "See {IERC721-safeTransferFrom}."
      },
      "setApprovalForAll(address,bool)": {
        "details": "See {IERC721-setApprovalForAll}."
      },
      "supportsInterface(bytes4)": {
        "details": "See {IERC165-supportsInterface}."
      },
      "symbol()": {
        "details": "See {IERC721Metadata-symbol}."
      },
      "tokenURI(uint256)": {
        "details": "See {IERC721Metadata-tokenURI}."
      },
      "transferFrom(address,address,uint256)": {
        "details": "See {IERC721-transferFrom}."
      },
      "transferOwnership(address)": {
        "details": "Transfers ownership of the contract to a new account (`newOwner`). Can only be called by the current owner."
      }
    },
    "version": 1
  },
  "userdoc": {
    "kind": "user",
    "methods": {},
    "version": 1
  }
}